{
  "_format": "hh-sol-artifact-1",
  "contractName": "CoinFlip",
  "sourceName": "contracts/CoinFlip.sol",
  "abi": [
    {
      "inputs": [
        {
          "internalType": "address",
          "name": "_token",
          "type": "address"
        }
      ],
      "stateMutability": "nonpayable",
      "type": "constructor"
    },
    {
      "inputs": [
        {
          "internalType": "uint256",
          "name": "amount",
          "type": "uint256"
        },
        {
          "internalType": "bool",
          "name": "choice",
          "type": "bool"
        }
      ],
      "name": "flipCoin",
      "outputs": [
        {
          "internalType": "bool",
          "name": "",
          "type": "bool"
        }
      ],
      "stateMutability": "nonpayable",
      "type": "function"
    },
    {
      "inputs": [],
      "name": "owner",
      "outputs": [
        {
          "internalType": "address",
          "name": "",
          "type": "address"
        }
      ],
      "stateMutability": "view",
      "type": "function"
    },
    {
      "inputs": [],
      "name": "token",
      "outputs": [
        {
          "internalType": "contract IERC20",
          "name": "",
          "type": "address"
        }
      ],
      "stateMutability": "view",
      "type": "function"
    }
  ],
  "bytecode": "0x608060405234801561001057600080fd5b506040516108dc3803806108dc8339818101604052810190610032919061011c565b336000806101000a81548173ffffffffffffffffffffffffffffffffffffffff021916908373ffffffffffffffffffffffffffffffffffffffff16021790555080600160006101000a81548173ffffffffffffffffffffffffffffffffffffffff021916908373ffffffffffffffffffffffffffffffffffffffff16021790555050610149565b600080fd5b600073ffffffffffffffffffffffffffffffffffffffff82169050919050565b60006100e9826100be565b9050919050565b6100f9816100de565b811461010457600080fd5b50565b600081519050610116816100f0565b92915050565b600060208284031215610132576101316100b9565b5b600061014084828501610107565b91505092915050565b610784806101586000396000f3fe608060405234801561001057600080fd5b50600436106100415760003560e01c80637d929d4e146100465780638da5cb5b14610076578063fc0c546a14610094575b600080fd5b610060600480360381019061005b91906103cd565b6100b2565b60405161006d919061041c565b60405180910390f35b61007e610310565b60405161008b9190610478565b60405180910390f35b61009c610334565b6040516100a991906104f2565b60405180910390f35b600082600160009054906101000a900473ffffffffffffffffffffffffffffffffffffffff1673ffffffffffffffffffffffffffffffffffffffff166370a08231336040518263ffffffff1660e01b81526004016101109190610478565b602060405180830381865afa15801561012d573d6000803e3d6000fd5b505050506040513d601f19601f820116820180604052508101906101519190610522565b1015610192576040517f08c379a0000000000000000000000000000000000000000000000000000000008152600401610189906105ac565b60405180910390fd5b6000806002426101a291906105fb565b1490508215158115150361026257600160009054906101000a900473ffffffffffffffffffffffffffffffffffffffff1673ffffffffffffffffffffffffffffffffffffffff1663a9059cbb336002876101fc919061065b565b6040518363ffffffff1660e01b81526004016102199291906106ac565b6020604051808303816000875af1158015610238573d6000803e3d6000fd5b505050506040513d601f19601f8201168201806040525081019061025c91906106ea565b50610306565b600160009054906101000a900473ffffffffffffffffffffffffffffffffffffffff1673ffffffffffffffffffffffffffffffffffffffff166323b872dd3330876040518463ffffffff1660e01b81526004016102c193929190610717565b6020604051808303816000875af11580156102e0573d6000803e3d6000fd5b505050506040513d601f19601f8201168201806040525081019061030491906106ea565b505b8091505092915050565b60008054906101000a900473ffffffffffffffffffffffffffffffffffffffff1681565b600160009054906101000a900473ffffffffffffffffffffffffffffffffffffffff1681565b600080fd5b6000819050919050565b6103728161035f565b811461037d57600080fd5b50565b60008135905061038f81610369565b92915050565b60008115159050919050565b6103aa81610395565b81146103b557600080fd5b50565b6000813590506103c7816103a1565b92915050565b600080604083850312156103e4576103e361035a565b5b60006103f285828601610380565b9250506020610403858286016103b8565b9150509250929050565b61041681610395565b82525050565b6000602082019050610431600083018461040d565b92915050565b600073ffffffffffffffffffffffffffffffffffffffff82169050919050565b600061046282610437565b9050919050565b61047281610457565b82525050565b600060208201905061048d6000830184610469565b92915050565b6000819050919050565b60006104b86104b36104ae84610437565b610493565b610437565b9050919050565b60006104ca8261049d565b9050919050565b60006104dc826104bf565b9050919050565b6104ec816104d1565b82525050565b600060208201905061050760008301846104e3565b92915050565b60008151905061051c81610369565b92915050565b6000602082840312156105385761053761035a565b5b60006105468482850161050d565b91505092915050565b600082825260208201905092915050565b7f496e73756666696369656e742062616c616e6365000000000000000000000000600082015250565b600061059660148361054f565b91506105a182610560565b602082019050919050565b600060208201905081810360008301526105c581610589565b9050919050565b7f4e487b7100000000000000000000000000000000000000000000000000000000600052601260045260246000fd5b60006106068261035f565b91506106118361035f565b925082610621576106206105cc565b5b828206905092915050565b7f4e487b7100000000000000000000000000000000000000000000000000000000600052601160045260246000fd5b60006106668261035f565b91506106718361035f565b925082820261067f8161035f565b915082820484148315176106965761069561062c565b5b5092915050565b6106a68161035f565b82525050565b60006040820190506106c16000830185610469565b6106ce602083018461069d565b9392505050565b6000815190506106e4816103a1565b92915050565b600060208284031215610700576106ff61035a565b5b600061070e848285016106d5565b91505092915050565b600060608201905061072c6000830186610469565b6107396020830185610469565b610746604083018461069d565b94935050505056fea2646970667358221220d2cab73833811bef30abbb687044649e02a22a1129579974247ded4220da9fa464736f6c63430008140033",
  "linkReferences": {},
  "deployedLinkReferences": {}
}